{
  "_format": "hh-sol-artifact-1",
  "contractName": "EventTicket",
  "sourceName": "contracts/EventTicket.sol",
  "abi": [
    {
      "inputs": [
        {
          "internalType": "string",
          "name": "_eventName",
          "type": "string"
        },
        {
          "internalType": "uint256",
          "name": "_ticketPrice",
          "type": "uint256"
        }
      ],
      "stateMutability": "nonpayable",
      "type": "constructor"
    },
    {
      "inputs": [
        {
          "internalType": "address",
          "name": "sender",
          "type": "address"
        },
        {
          "internalType": "uint256",
          "name": "tokenId",
          "type": "uint256"
        },
        {
          "internalType": "address",
          "name": "owner",
          "type": "address"
        }
      ],
      "name": "ERC721IncorrectOwner",
      "type": "error"
    },
    {
      "inputs": [
        {
          "internalType": "address",
          "name": "operator",
          "type": "address"
        },
        {
          "internalType": "uint256",
          "name": "tokenId",
          "type": "uint256"
        }
      ],
      "name": "ERC721InsufficientApproval",
      "type": "error"
    },
    {
      "inputs": [
        {
          "internalType": "address",
          "name": "approver",
          "type": "address"
        }
      ],
      "name": "ERC721InvalidApprover",
      "type": "error"
    },
    {
      "inputs": [
        {
          "internalType": "address",
          "name": "operator",
          "type": "address"
        }
      ],
      "name": "ERC721InvalidOperator",
      "type": "error"
    },
    {
      "inputs": [
        {
          "internalType": "address",
          "name": "owner",
          "type": "address"
        }
      ],
      "name": "ERC721InvalidOwner",
      "type": "error"
    },
    {
      "inputs": [
        {
          "internalType": "address",
          "name": "receiver",
          "type": "address"
        }
      ],
      "name": "ERC721InvalidReceiver",
      "type": "error"
    },
    {
      "inputs": [
        {
          "internalType": "address",
          "name": "sender",
          "type": "address"
        }
      ],
      "name": "ERC721InvalidSender",
      "type": "error"
    },
    {
      "inputs": [
        {
          "internalType": "uint256",
          "name": "tokenId",
          "type": "uint256"
        }
      ],
      "name": "ERC721NonexistentToken",
      "type": "error"
    },
    {
      "inputs": [
        {
          "internalType": "address",
          "name": "owner",
          "type": "address"
        }
      ],
      "name": "OwnableInvalidOwner",
      "type": "error"
    },
    {
      "inputs": [
        {
          "internalType": "address",
          "name": "account",
          "type": "address"
        }
      ],
      "name": "OwnableUnauthorizedAccount",
      "type": "error"
    },
    {
      "anonymous": false,
      "inputs": [
        {
          "indexed": true,
          "internalType": "address",
          "name": "owner",
          "type": "address"
        },
        {
          "indexed": true,
          "internalType": "address",
          "name": "approved",
          "type": "address"
        },
        {
          "indexed": true,
          "internalType": "uint256",
          "name": "tokenId",
          "type": "uint256"
        }
      ],
      "name": "Approval",
      "type": "event"
    },
    {
      "anonymous": false,
      "inputs": [
        {
          "indexed": true,
          "internalType": "address",
          "name": "owner",
          "type": "address"
        },
        {
          "indexed": true,
          "internalType": "address",
          "name": "operator",
          "type": "address"
        },
        {
          "indexed": false,
          "internalType": "bool",
          "name": "approved",
          "type": "bool"
        }
      ],
      "name": "ApprovalForAll",
      "type": "event"
    },
    {
      "anonymous": false,
      "inputs": [
        {
          "indexed": false,
          "internalType": "uint256",
          "name": "_fromTokenId",
          "type": "uint256"
        },
        {
          "indexed": false,
          "internalType": "uint256",
          "name": "_toTokenId",
          "type": "uint256"
        }
      ],
      "name": "BatchMetadataUpdate",
      "type": "event"
    },
    {
      "anonymous": false,
      "inputs": [
        {
          "indexed": false,
          "internalType": "uint256",
          "name": "_tokenId",
          "type": "uint256"
        }
      ],
      "name": "MetadataUpdate",
      "type": "event"
    },
    {
      "anonymous": false,
      "inputs": [
        {
          "indexed": true,
          "internalType": "address",
          "name": "previousOwner",
          "type": "address"
        },
        {
          "indexed": true,
          "internalType": "address",
          "name": "newOwner",
          "type": "address"
        }
      ],
      "name": "OwnershipTransferred",
      "type": "event"
    },
    {
      "anonymous": false,
      "inputs": [
        {
          "indexed": true,
          "internalType": "address",
          "name": "owner",
          "type": "address"
        },
        {
          "indexed": false,
          "internalType": "uint256",
          "name": "tokenId",
          "type": "uint256"
        },
        {
          "indexed": false,
          "internalType": "string",
          "name": "metadataURI",
          "type": "string"
        }
      ],
      "name": "TicketMinted",
      "type": "event"
    },
    {
      "anonymous": false,
      "inputs": [
        {
          "indexed": false,
          "internalType": "uint256",
          "name": "tokenId",
          "type": "uint256"
        }
      ],
      "name": "TicketValidated",
      "type": "event"
    },
    {
      "anonymous": false,
      "inputs": [
        {
          "indexed": true,
          "internalType": "address",
          "name": "from",
          "type": "address"
        },
        {
          "indexed": true,
          "internalType": "address",
          "name": "to",
          "type": "address"
        },
        {
          "indexed": true,
          "internalType": "uint256",
          "name": "tokenId",
          "type": "uint256"
        }
      ],
      "name": "Transfer",
      "type": "event"
    },
    {
      "inputs": [
        {
          "internalType": "address",
          "name": "to",
          "type": "address"
        },
        {
          "internalType": "uint256",
          "name": "tokenId",
          "type": "uint256"
        }
      ],
      "name": "approve",
      "outputs": [],
      "stateMutability": "nonpayable",
      "type": "function"
    },
    {
      "inputs": [
        {
          "internalType": "address",
          "name": "owner",
          "type": "address"
        }
      ],
      "name": "balanceOf",
      "outputs": [
        {
          "internalType": "uint256",
          "name": "",
          "type": "uint256"
        }
      ],
      "stateMutability": "view",
      "type": "function"
    },
    {
      "inputs": [],
      "name": "eventName",
      "outputs": [
        {
          "internalType": "string",
          "name": "",
          "type": "string"
        }
      ],
      "stateMutability": "view",
      "type": "function"
    },
    {
      "inputs": [
        {
          "internalType": "uint256",
          "name": "tokenId",
          "type": "uint256"
        }
      ],
      "name": "getApproved",
      "outputs": [
        {
          "internalType": "address",
          "name": "",
          "type": "address"
        }
      ],
      "stateMutability": "view",
      "type": "function"
    },
    {
      "inputs": [
        {
          "internalType": "address",
          "name": "owner",
          "type": "address"
        },
        {
          "internalType": "address",
          "name": "operator",
          "type": "address"
        }
      ],
      "name": "isApprovedForAll",
      "outputs": [
        {
          "internalType": "bool",
          "name": "",
          "type": "bool"
        }
      ],
      "stateMutability": "view",
      "type": "function"
    },
    {
      "inputs": [
        {
          "internalType": "uint256",
          "name": "",
          "type": "uint256"
        }
      ],
      "name": "isTicketUsed",
      "outputs": [
        {
          "internalType": "bool",
          "name": "",
          "type": "bool"
        }
      ],
      "stateMutability": "view",
      "type": "function"
    },
    {
      "inputs": [
        {
          "internalType": "address",
          "name": "recipient",
          "type": "address"
        },
        {
          "internalType": "string",
          "name": "metadataURI",
          "type": "string"
        }
      ],
      "name": "mintTicket",
      "outputs": [],
      "stateMutability": "payable",
      "type": "function"
    },
    {
      "inputs": [],
      "name": "name",
      "outputs": [
        {
          "internalType": "string",
          "name": "",
          "type": "string"
        }
      ],
      "stateMutability": "view",
      "type": "function"
    },
    {
      "inputs": [],
      "name": "nextTokenId",
      "outputs": [
        {
          "internalType": "uint256",
          "name": "",
          "type": "uint256"
        }
      ],
      "stateMutability": "view",
      "type": "function"
    },
    {
      "inputs": [],
      "name": "owner",
      "outputs": [
        {
          "internalType": "address",
          "name": "",
          "type": "address"
        }
      ],
      "stateMutability": "view",
      "type": "function"
    },
    {
      "inputs": [
        {
          "internalType": "uint256",
          "name": "tokenId",
          "type": "uint256"
        }
      ],
      "name": "ownerOf",
      "outputs": [
        {
          "internalType": "address",
          "name": "",
          "type": "address"
        }
      ],
      "stateMutability": "view",
      "type": "function"
    },
    {
      "inputs": [],
      "name": "renounceOwnership",
      "outputs": [],
      "stateMutability": "nonpayable",
      "type": "function"
    },
    {
      "inputs": [
        {
          "internalType": "address",
          "name": "from",
          "type": "address"
        },
        {
          "internalType": "address",
          "name": "to",
          "type": "address"
        },
        {
          "internalType": "uint256",
          "name": "tokenId",
          "type": "uint256"
        }
      ],
      "name": "safeTransferFrom",
      "outputs": [],
      "stateMutability": "nonpayable",
      "type": "function"
    },
    {
      "inputs": [
        {
          "internalType": "address",
          "name": "from",
          "type": "address"
        },
        {
          "internalType": "address",
          "name": "to",
          "type": "address"
        },
        {
          "internalType": "uint256",
          "name": "tokenId",
          "type": "uint256"
        },
        {
          "internalType": "bytes",
          "name": "data",
          "type": "bytes"
        }
      ],
      "name": "safeTransferFrom",
      "outputs": [],
      "stateMutability": "nonpayable",
      "type": "function"
    },
    {
      "inputs": [
        {
          "internalType": "address",
          "name": "operator",
          "type": "address"
        },
        {
          "internalType": "bool",
          "name": "approved",
          "type": "bool"
        }
      ],
      "name": "setApprovalForAll",
      "outputs": [],
      "stateMutability": "nonpayable",
      "type": "function"
    },
    {
      "inputs": [
        {
          "internalType": "bytes4",
          "name": "interfaceId",
          "type": "bytes4"
        }
      ],
      "name": "supportsInterface",
      "outputs": [
        {
          "internalType": "bool",
          "name": "",
          "type": "bool"
        }
      ],
      "stateMutability": "view",
      "type": "function"
    },
    {
      "inputs": [],
      "name": "symbol",
      "outputs": [
        {
          "internalType": "string",
          "name": "",
          "type": "string"
        }
      ],
      "stateMutability": "view",
      "type": "function"
    },
    {
      "inputs": [],
      "name": "ticketPrice",
      "outputs": [
        {
          "internalType": "uint256",
          "name": "",
          "type": "uint256"
        }
      ],
      "stateMutability": "view",
      "type": "function"
    },
    {
      "inputs": [
        {
          "internalType": "uint256",
          "name": "tokenId",
          "type": "uint256"
        }
      ],
      "name": "tokenURI",
      "outputs": [
        {
          "internalType": "string",
          "name": "",
          "type": "string"
        }
      ],
      "stateMutability": "view",
      "type": "function"
    },
    {
      "inputs": [
        {
          "internalType": "address",
          "name": "from",
          "type": "address"
        },
        {
          "internalType": "address",
          "name": "to",
          "type": "address"
        },
        {
          "internalType": "uint256",
          "name": "tokenId",
          "type": "uint256"
        }
      ],
      "name": "transferFrom",
      "outputs": [],
      "stateMutability": "nonpayable",
      "type": "function"
    },
    {
      "inputs": [
        {
          "internalType": "address",
          "name": "newOwner",
          "type": "address"
        }
      ],
      "name": "transferOwnership",
      "outputs": [],
      "stateMutability": "nonpayable",
      "type": "function"
    },
    {
      "inputs": [
        {
          "internalType": "uint256",
          "name": "tokenId",
          "type": "uint256"
        }
      ],
      "name": "validateTicket",
      "outputs": [],
      "stateMutability": "nonpayable",
      "type": "function"
    }
  ],
  "bytecode": "0x608060405234801561001057600080fd5b50604051613381380380613381833981810160405281019061003291906103d2565b336040518060400160405280600b81526020017f4576656e745469636b65740000000000000000000000000000000000000000008152506040518060400160405280600481526020017f45544b540000000000000000000000000000000000000000000000000000000081525081600090816100ae9190610645565b5080600190816100be9190610645565b505050600073ffffffffffffffffffffffffffffffffffffffff168173ffffffffffffffffffffffffffffffffffffffff16036101335760006040517f1e4fbdf700000000000000000000000000000000000000000000000000000000815260040161012a9190610758565b60405180910390fd5b6101428161016160201b60201c565b5081600990816101529190610645565b5080600a819055505050610773565b6000600760009054906101000a900473ffffffffffffffffffffffffffffffffffffffff16905081600760006101000a81548173ffffffffffffffffffffffffffffffffffffffff021916908373ffffffffffffffffffffffffffffffffffffffff1602179055508173ffffffffffffffffffffffffffffffffffffffff168173ffffffffffffffffffffffffffffffffffffffff167f8be0079c531659141344cd1fd0a4f28419497f9722a3daafe3b4186f6b6457e060405160405180910390a35050565b6000604051905090565b600080fd5b600080fd5b600080fd5b600080fd5b6000601f19601f8301169050919050565b7f4e487b7100000000000000000000000000000000000000000000000000000000600052604160045260246000fd5b61028e82610245565b810181811067ffffffffffffffff821117156102ad576102ac610256565b5b80604052505050565b60006102c0610227565b90506102cc8282610285565b919050565b600067ffffffffffffffff8211156102ec576102eb610256565b5b6102f582610245565b9050602081019050919050565b60005b83811015610320578082015181840152602081019050610305565b60008484015250505050565b600061033f61033a846102d1565b6102b6565b90508281526020810184848401111561035b5761035a610240565b5b610366848285610302565b509392505050565b600082601f8301126103835761038261023b565b5b815161039384826020860161032c565b91505092915050565b6000819050919050565b6103af8161039c565b81146103ba57600080fd5b50565b6000815190506103cc816103a6565b92915050565b600080604083850312156103e9576103e8610231565b5b600083015167ffffffffffffffff81111561040757610406610236565b5b6104138582860161036e565b9250506020610424858286016103bd565b9150509250929050565b600081519050919050565b7f4e487b7100000000000000000000000000000000000000000000000000000000600052602260045260246000fd5b6000600282049050600182168061048057607f821691505b60208210810361049357610492610439565b5b50919050565b60008190508160005260206000209050919050565b60006020601f8301049050919050565b600082821b905092915050565b6000600883026104fb7fffffffffffffffffffffffffffffffffffffffffffffffffffffffffffffffff826104be565b61050586836104be565b95508019841693508086168417925050509392505050565b6000819050919050565b600061054261053d6105388461039c565b61051d565b61039c565b9050919050565b6000819050919050565b61055c83610527565b61057061056882610549565b8484546104cb565b825550505050565b600090565b610585610578565b610590818484610553565b505050565b5b818110156105b4576105a960008261057d565b600181019050610596565b5050565b601f8211156105f9576105ca81610499565b6105d3846104ae565b810160208510156105e2578190505b6105f66105ee856104ae565b830182610595565b50505b505050565b600082821c905092915050565b600061061c600019846008026105fe565b1980831691505092915050565b6000610635838361060b565b9150826002028217905092915050565b61064e8261042e565b67ffffffffffffffff81111561066757610666610256565b5b6106718254610468565b61067c8282856105b8565b600060209050601f8311600181146106af576000841561069d578287015190505b6106a78582610629565b86555061070f565b601f1984166106bd86610499565b60005b828110156106e5578489015182556001820191506020850194506020810190506106c0565b8683101561070257848901516106fe601f89168261060b565b8355505b6001600288020188555050505b505050505050565b600073ffffffffffffffffffffffffffffffffffffffff82169050919050565b600061074282610717565b9050919050565b61075281610737565b82525050565b600060208201905061076d6000830184610749565b92915050565b612bff806107826000396000f3fe6080604052600436106101355760003560e01c806370a08231116100ab57806395d89b411161006f57806395d89b4114610419578063a22cb46514610444578063b88d4fde1461046d578063c87b56dd14610496578063e985e9c5146104d3578063f2fde38b1461051057610135565b806370a0823114610344578063715018a61461038157806375794a3c146103985780638043c9c0146103c35780638da5cb5b146103ee57610135565b80631209b1f6116100fd5780631209b1f61461023157806323b872dd1461025c5780632cd1d35c1461028557806342842e0e146102c25780635388842c146102eb5780636352211e1461030757610135565b806301ffc9a71461013a578063054ae7df1461017757806306fdde03146101a0578063081812fc146101cb578063095ea7b314610208575b600080fd5b34801561014657600080fd5b50610161600480360381019061015c9190611ee3565b610539565b60405161016e9190611f2b565b60405180910390f35b34801561018357600080fd5b5061019e60048036038101906101999190611f7c565b61059a565b005b3480156101ac57600080fd5b506101b56106d7565b6040516101c29190612039565b60405180910390f35b3480156101d757600080fd5b506101f260048036038101906101ed9190611f7c565b610769565b6040516101ff919061209c565b60405180910390f35b34801561021457600080fd5b5061022f600480360381019061022a91906120e3565b610785565b005b34801561023d57600080fd5b5061024661079b565b6040516102539190612132565b60405180910390f35b34801561026857600080fd5b50610283600480360381019061027e919061214d565b6107a1565b005b34801561029157600080fd5b506102ac60048036038101906102a79190611f7c565b6108a3565b6040516102b99190611f2b565b60405180910390f35b3480156102ce57600080fd5b506102e960048036038101906102e4919061214d565b6108c3565b005b610305600480360381019061030091906122d5565b6108e3565b005b34801561031357600080fd5b5061032e60048036038101906103299190611f7c565b6109b0565b60405161033b919061209c565b60405180910390f35b34801561035057600080fd5b5061036b60048036038101906103669190612331565b6109c2565b6040516103789190612132565b60405180910390f35b34801561038d57600080fd5b50610396610a7c565b005b3480156103a457600080fd5b506103ad610a90565b6040516103ba9190612132565b60405180910390f35b3480156103cf57600080fd5b506103d8610a96565b6040516103e59190612039565b60405180910390f35b3480156103fa57600080fd5b50610403610b24565b604051610410919061209c565b60405180910390f35b34801561042557600080fd5b5061042e610b4e565b60405161043b9190612039565b60405180910390f35b34801561045057600080fd5b5061046b6004803603810190610466919061238a565b610be0565b005b34801561047957600080fd5b50610494600480360381019061048f919061246b565b610bf6565b005b3480156104a257600080fd5b506104bd60048036038101906104b89190611f7c565b610c1b565b6040516104ca9190612039565b60405180910390f35b3480156104df57600080fd5b506104fa60048036038101906104f591906124ee565b610d2e565b6040516105079190611f2b565b60405180910390f35b34801561051c57600080fd5b5061053760048036038101906105329190612331565b610dc2565b005b6000634906490660e01b7bffffffffffffffffffffffffffffffffffffffffffffffffffffffff1916827bffffffffffffffffffffffffffffffffffffffffffffffffffffffff19161480610593575061059282610e48565b5b9050919050565b3373ffffffffffffffffffffffffffffffffffffffff166105ba826109b0565b73ffffffffffffffffffffffffffffffffffffffff1614610610576040517f08c379a00000000000000000000000000000000000000000000000000000000081526004016106079061257a565b60405180910390fd5b600b600082815260200190815260200160002060009054906101000a900460ff1615610671576040517f08c379a0000000000000000000000000000000000000000000000000000000008152600401610668906125e6565b60405180910390fd5b6001600b600083815260200190815260200160002060006101000a81548160ff0219169083151502179055507f57bbca7d06236724b863845d5ac4a5b2431ab54922f89f8644ec9e837b7b5e04816040516106cc9190612132565b60405180910390a150565b6060600080546106e690612635565b80601f016020809104026020016040519081016040528092919081815260200182805461071290612635565b801561075f5780601f106107345761010080835404028352916020019161075f565b820191906000526020600020905b81548152906001019060200180831161074257829003601f168201915b5050505050905090565b600061077482610f2a565b5061077e82610fb2565b9050919050565b6107978282610792610fef565b610ff7565b5050565b600a5481565b600073ffffffffffffffffffffffffffffffffffffffff168273ffffffffffffffffffffffffffffffffffffffff16036108135760006040517f64a0ae9200000000000000000000000000000000000000000000000000000000815260040161080a919061209c565b60405180910390fd5b60006108278383610822610fef565b611009565b90508373ffffffffffffffffffffffffffffffffffffffff168173ffffffffffffffffffffffffffffffffffffffff161461089d578382826040517f64283d7b00000000000000000000000000000000000000000000000000000000815260040161089493929190612666565b60405180910390fd5b50505050565b600b6020528060005260406000206000915054906101000a900460ff1681565b6108de83838360405180602001604052806000815250610bf6565b505050565b600a54341015610928576040517f08c379a000000000000000000000000000000000000000000000000000000000815260040161091f906126e9565b60405180910390fd5b600060085490506109398382611223565b610943818361131c565b6008600081548092919061095690612738565b91905055508273ffffffffffffffffffffffffffffffffffffffff167ff16f1e8b680ea7f1e8a1f849eb82762cba60ddcef854d36909e3173483281c8c82846040516109a3929190612780565b60405180910390a2505050565b60006109bb82610f2a565b9050919050565b60008073ffffffffffffffffffffffffffffffffffffffff168273ffffffffffffffffffffffffffffffffffffffff1603610a355760006040517f89c62b64000000000000000000000000000000000000000000000000000000008152600401610a2c919061209c565b60405180910390fd5b600360008373ffffffffffffffffffffffffffffffffffffffff1673ffffffffffffffffffffffffffffffffffffffff168152602001908152602001600020549050919050565b610a84611378565b610a8e60006113ff565b565b60085481565b60098054610aa390612635565b80601f0160208091040260200160405190810160405280929190818152602001828054610acf90612635565b8015610b1c5780601f10610af157610100808354040283529160200191610b1c565b820191906000526020600020905b815481529060010190602001808311610aff57829003601f168201915b505050505081565b6000600760009054906101000a900473ffffffffffffffffffffffffffffffffffffffff16905090565b606060018054610b5d90612635565b80601f0160208091040260200160405190810160405280929190818152602001828054610b8990612635565b8015610bd65780601f10610bab57610100808354040283529160200191610bd6565b820191906000526020600020905b815481529060010190602001808311610bb957829003601f168201915b5050505050905090565b610bf2610beb610fef565b83836114c5565b5050565b610c018484846107a1565b610c15610c0c610fef565b85858585611634565b50505050565b6060610c2682610f2a565b506000600660008481526020019081526020016000208054610c4790612635565b80601f0160208091040260200160405190810160405280929190818152602001828054610c7390612635565b8015610cc05780601f10610c9557610100808354040283529160200191610cc0565b820191906000526020600020905b815481529060010190602001808311610ca357829003601f168201915b505050505090506000610cd16117e5565b90506000815103610ce6578192505050610d29565b600082511115610d1b578082604051602001610d039291906127ec565b60405160208183030381529060405292505050610d29565b610d24846117fc565b925050505b919050565b6000600560008473ffffffffffffffffffffffffffffffffffffffff1673ffffffffffffffffffffffffffffffffffffffff16815260200190815260200160002060008373ffffffffffffffffffffffffffffffffffffffff1673ffffffffffffffffffffffffffffffffffffffff16815260200190815260200160002060009054906101000a900460ff16905092915050565b610dca611378565b600073ffffffffffffffffffffffffffffffffffffffff168173ffffffffffffffffffffffffffffffffffffffff1603610e3c5760006040517f1e4fbdf7000000000000000000000000000000000000000000000000000000008152600401610e33919061209c565b60405180910390fd5b610e45816113ff565b50565b60007f80ac58cd000000000000000000000000000000000000000000000000000000007bffffffffffffffffffffffffffffffffffffffffffffffffffffffff1916827bffffffffffffffffffffffffffffffffffffffffffffffffffffffff19161480610f1357507f5b5e139f000000000000000000000000000000000000000000000000000000007bffffffffffffffffffffffffffffffffffffffffffffffffffffffff1916827bffffffffffffffffffffffffffffffffffffffffffffffffffffffff1916145b80610f235750610f2282611865565b5b9050919050565b600080610f36836118cf565b9050600073ffffffffffffffffffffffffffffffffffffffff168173ffffffffffffffffffffffffffffffffffffffff1603610fa957826040517f7e273289000000000000000000000000000000000000000000000000000000008152600401610fa09190612132565b60405180910390fd5b80915050919050565b60006004600083815260200190815260200160002060009054906101000a900473ffffffffffffffffffffffffffffffffffffffff169050919050565b600033905090565b611004838383600161190c565b505050565b600080611015846118cf565b9050600073ffffffffffffffffffffffffffffffffffffffff168373ffffffffffffffffffffffffffffffffffffffff161461105757611056818486611ad1565b5b600073ffffffffffffffffffffffffffffffffffffffff168173ffffffffffffffffffffffffffffffffffffffff16146110e85761109960008560008061190c565b6001600360008373ffffffffffffffffffffffffffffffffffffffff1673ffffffffffffffffffffffffffffffffffffffff168152602001908152602001600020600082825403925050819055505b600073ffffffffffffffffffffffffffffffffffffffff168573ffffffffffffffffffffffffffffffffffffffff161461116b576001600360008773ffffffffffffffffffffffffffffffffffffffff1673ffffffffffffffffffffffffffffffffffffffff168152602001908152602001600020600082825401925050819055505b846002600086815260200190815260200160002060006101000a81548173ffffffffffffffffffffffffffffffffffffffff021916908373ffffffffffffffffffffffffffffffffffffffff160217905550838573ffffffffffffffffffffffffffffffffffffffff168273ffffffffffffffffffffffffffffffffffffffff167fddf252ad1be2c89b69c2b068fc378daa952ba7f163c4a11628f55a4df523b3ef60405160405180910390a4809150509392505050565b600073ffffffffffffffffffffffffffffffffffffffff168273ffffffffffffffffffffffffffffffffffffffff16036112955760006040517f64a0ae9200000000000000000000000000000000000000000000000000000000815260040161128c919061209c565b60405180910390fd5b60006112a383836000611009565b9050600073ffffffffffffffffffffffffffffffffffffffff168173ffffffffffffffffffffffffffffffffffffffff16146113175760006040517f73c6ac6e00000000000000000000000000000000000000000000000000000000815260040161130e919061209c565b60405180910390fd5b505050565b8060066000848152602001908152602001600020908161133c91906129bc565b507ff8e1a15aba9398e019f0b49df1a4fde98ee17ae345cb5f6b5e2c27f5033e8ce78260405161136c9190612132565b60405180910390a15050565b611380610fef565b73ffffffffffffffffffffffffffffffffffffffff1661139e610b24565b73ffffffffffffffffffffffffffffffffffffffff16146113fd576113c1610fef565b6040517f118cdaa70000000000000000000000000000000000000000000000000000000081526004016113f4919061209c565b60405180910390fd5b565b6000600760009054906101000a900473ffffffffffffffffffffffffffffffffffffffff16905081600760006101000a81548173ffffffffffffffffffffffffffffffffffffffff021916908373ffffffffffffffffffffffffffffffffffffffff1602179055508173ffffffffffffffffffffffffffffffffffffffff168173ffffffffffffffffffffffffffffffffffffffff167f8be0079c531659141344cd1fd0a4f28419497f9722a3daafe3b4186f6b6457e060405160405180910390a35050565b600073ffffffffffffffffffffffffffffffffffffffff168273ffffffffffffffffffffffffffffffffffffffff160361153657816040517f5b08ba1800000000000000000000000000000000000000000000000000000000815260040161152d919061209c565b60405180910390fd5b80600560008573ffffffffffffffffffffffffffffffffffffffff1673ffffffffffffffffffffffffffffffffffffffff16815260200190815260200160002060008473ffffffffffffffffffffffffffffffffffffffff1673ffffffffffffffffffffffffffffffffffffffff16815260200190815260200160002060006101000a81548160ff0219169083151502179055508173ffffffffffffffffffffffffffffffffffffffff168373ffffffffffffffffffffffffffffffffffffffff167f17307eab39ab6107e8899845ad3d59bd9653f200f220920489ca2b5937696c31836040516116279190611f2b565b60405180910390a3505050565b60008373ffffffffffffffffffffffffffffffffffffffff163b11156117de578273ffffffffffffffffffffffffffffffffffffffff1663150b7a02868685856040518563ffffffff1660e01b81526004016116939493929190612ae3565b6020604051808303816000875af19250505080156116cf57506040513d601f19601f820116820180604052508101906116cc9190612b44565b60015b611753573d80600081146116ff576040519150601f19603f3d011682016040523d82523d6000602084013e611704565b606091505b50600081510361174b57836040517f64a0ae92000000000000000000000000000000000000000000000000000000008152600401611742919061209c565b60405180910390fd5b805181602001fd5b63150b7a0260e01b7bffffffffffffffffffffffffffffffffffffffffffffffffffffffff1916817bffffffffffffffffffffffffffffffffffffffffffffffffffffffff1916146117dc57836040517f64a0ae920000000000000000000000000000000000000000000000000000000081526004016117d3919061209c565b60405180910390fd5b505b5050505050565b606060405180602001604052806000815250905090565b606061180782610f2a565b5060006118126117e5565b90506000815111611832576040518060200160405280600081525061185d565b8061183c84611b95565b60405160200161184d9291906127ec565b6040516020818303038152906040525b915050919050565b60007f01ffc9a7000000000000000000000000000000000000000000000000000000007bffffffffffffffffffffffffffffffffffffffffffffffffffffffff1916827bffffffffffffffffffffffffffffffffffffffffffffffffffffffff1916149050919050565b60006002600083815260200190815260200160002060009054906101000a900473ffffffffffffffffffffffffffffffffffffffff169050919050565b80806119455750600073ffffffffffffffffffffffffffffffffffffffff168273ffffffffffffffffffffffffffffffffffffffff1614155b15611a7957600061195584610f2a565b9050600073ffffffffffffffffffffffffffffffffffffffff168373ffffffffffffffffffffffffffffffffffffffff16141580156119c057508273ffffffffffffffffffffffffffffffffffffffff168173ffffffffffffffffffffffffffffffffffffffff1614155b80156119d357506119d18184610d2e565b155b15611a1557826040517fa9fbf51f000000000000000000000000000000000000000000000000000000008152600401611a0c919061209c565b60405180910390fd5b8115611a7757838573ffffffffffffffffffffffffffffffffffffffff168273ffffffffffffffffffffffffffffffffffffffff167f8c5be1e5ebec7d5bd14f71427d1e84f3dd0314c0f7b2291e5b200ac8c7c3b92560405160405180910390a45b505b836004600085815260200190815260200160002060006101000a81548173ffffffffffffffffffffffffffffffffffffffff021916908373ffffffffffffffffffffffffffffffffffffffff16021790555050505050565b611adc838383611c63565b611b9057600073ffffffffffffffffffffffffffffffffffffffff168373ffffffffffffffffffffffffffffffffffffffff1603611b5157806040517f7e273289000000000000000000000000000000000000000000000000000000008152600401611b489190612132565b60405180910390fd5b81816040517f177e802f000000000000000000000000000000000000000000000000000000008152600401611b87929190612b71565b60405180910390fd5b505050565b606060006001611ba484611d24565b01905060008167ffffffffffffffff811115611bc357611bc26121aa565b5b6040519080825280601f01601f191660200182016040528015611bf55781602001600182028036833780820191505090505b509050600082602001820190505b600115611c58578080600190039150507f3031323334353637383961626364656600000000000000000000000000000000600a86061a8153600a8581611c4c57611c4b612b9a565b5b04945060008503611c03575b819350505050919050565b60008073ffffffffffffffffffffffffffffffffffffffff168373ffffffffffffffffffffffffffffffffffffffff1614158015611d1b57508273ffffffffffffffffffffffffffffffffffffffff168473ffffffffffffffffffffffffffffffffffffffff161480611cdc5750611cdb8484610d2e565b5b80611d1a57508273ffffffffffffffffffffffffffffffffffffffff16611d0283610fb2565b73ffffffffffffffffffffffffffffffffffffffff16145b5b90509392505050565b600080600090507a184f03e93ff9f4daa797ed6e38ed64bf6a1f0100000000000000008310611d82577a184f03e93ff9f4daa797ed6e38ed64bf6a1f0100000000000000008381611d7857611d77612b9a565b5b0492506040810190505b6d04ee2d6d415b85acef81000000008310611dbf576d04ee2d6d415b85acef81000000008381611db557611db4612b9a565b5b0492506020810190505b662386f26fc100008310611dee57662386f26fc100008381611de457611de3612b9a565b5b0492506010810190505b6305f5e1008310611e17576305f5e1008381611e0d57611e0c612b9a565b5b0492506008810190505b6127108310611e3c576127108381611e3257611e31612b9a565b5b0492506004810190505b60648310611e5f5760648381611e5557611e54612b9a565b5b0492506002810190505b600a8310611e6e576001810190505b80915050919050565b6000604051905090565b600080fd5b600080fd5b60007fffffffff0000000000000000000000000000000000000000000000000000000082169050919050565b611ec081611e8b565b8114611ecb57600080fd5b50565b600081359050611edd81611eb7565b92915050565b600060208284031215611ef957611ef8611e81565b5b6000611f0784828501611ece565b91505092915050565b60008115159050919050565b611f2581611f10565b82525050565b6000602082019050611f406000830184611f1c565b92915050565b6000819050919050565b611f5981611f46565b8114611f6457600080fd5b50565b600081359050611f7681611f50565b92915050565b600060208284031215611f9257611f91611e81565b5b6000611fa084828501611f67565b91505092915050565b600081519050919050565b600082825260208201905092915050565b60005b83811015611fe3578082015181840152602081019050611fc8565b60008484015250505050565b6000601f19601f8301169050919050565b600061200b82611fa9565b6120158185611fb4565b9350612025818560208601611fc5565b61202e81611fef565b840191505092915050565b600060208201905081810360008301526120538184612000565b905092915050565b600073ffffffffffffffffffffffffffffffffffffffff82169050919050565b60006120868261205b565b9050919050565b6120968161207b565b82525050565b60006020820190506120b1600083018461208d565b92915050565b6120c08161207b565b81146120cb57600080fd5b50565b6000813590506120dd816120b7565b92915050565b600080604083850312156120fa576120f9611e81565b5b6000612108858286016120ce565b925050602061211985828601611f67565b9150509250929050565b61212c81611f46565b82525050565b60006020820190506121476000830184612123565b92915050565b60008060006060848603121561216657612165611e81565b5b6000612174868287016120ce565b9350506020612185868287016120ce565b925050604061219686828701611f67565b9150509250925092565b600080fd5b600080fd5b7f4e487b7100000000000000000000000000000000000000000000000000000000600052604160045260246000fd5b6121e282611fef565b810181811067ffffffffffffffff82111715612201576122006121aa565b5b80604052505050565b6000612214611e77565b905061222082826121d9565b919050565b600067ffffffffffffffff8211156122405761223f6121aa565b5b61224982611fef565b9050602081019050919050565b82818337600083830152505050565b600061227861227384612225565b61220a565b905082815260208101848484011115612294576122936121a5565b5b61229f848285612256565b509392505050565b600082601f8301126122bc576122bb6121a0565b5b81356122cc848260208601612265565b91505092915050565b600080604083850312156122ec576122eb611e81565b5b60006122fa858286016120ce565b925050602083013567ffffffffffffffff81111561231b5761231a611e86565b5b612327858286016122a7565b9150509250929050565b60006020828403121561234757612346611e81565b5b6000612355848285016120ce565b91505092915050565b61236781611f10565b811461237257600080fd5b50565b6000813590506123848161235e565b92915050565b600080604083850312156123a1576123a0611e81565b5b60006123af858286016120ce565b92505060206123c085828601612375565b9150509250929050565b600067ffffffffffffffff8211156123e5576123e46121aa565b5b6123ee82611fef565b9050602081019050919050565b600061240e612409846123ca565b61220a565b90508281526020810184848401111561242a576124296121a5565b5b612435848285612256565b509392505050565b600082601f830112612452576124516121a0565b5b81356124628482602086016123fb565b91505092915050565b6000806000806080858703121561248557612484611e81565b5b6000612493878288016120ce565b94505060206124a4878288016120ce565b93505060406124b587828801611f67565b925050606085013567ffffffffffffffff8111156124d6576124d5611e86565b5b6124e28782880161243d565b91505092959194509250565b6000806040838503121561250557612504611e81565b5b6000612513858286016120ce565b9250506020612524858286016120ce565b9150509250929050565b7f596f7520646f206e6f74206f776e2074686973207469636b6574000000000000600082015250565b6000612564601a83611fb4565b915061256f8261252e565b602082019050919050565b6000602082019050818103600083015261259381612557565b9050919050565b7f5469636b65742068617320616c7265616479206265656e207573656400000000600082015250565b60006125d0601c83611fb4565b91506125db8261259a565b602082019050919050565b600060208201905081810360008301526125ff816125c3565b9050919050565b7f4e487b7100000000000000000000000000000000000000000000000000000000600052602260045260246000fd5b6000600282049050600182168061264d57607f821691505b6020821081036126605761265f612606565b5b50919050565b600060608201905061267b600083018661208d565b6126886020830185612123565b612695604083018461208d565b949350505050565b7f496e73756666696369656e74207061796d656e74000000000000000000000000600082015250565b60006126d3601483611fb4565b91506126de8261269d565b602082019050919050565b60006020820190508181036000830152612702816126c6565b9050919050565b7f4e487b7100000000000000000000000000000000000000000000000000000000600052601160045260246000fd5b600061274382611f46565b91507fffffffffffffffffffffffffffffffffffffffffffffffffffffffffffffffff820361277557612774612709565b5b600182019050919050565b60006040820190506127956000830185612123565b81810360208301526127a78184612000565b90509392505050565b600081905092915050565b60006127c682611fa9565b6127d081856127b0565b93506127e0818560208601611fc5565b80840191505092915050565b60006127f882856127bb565b915061280482846127bb565b91508190509392505050565b60008190508160005260206000209050919050565b60006020601f8301049050919050565b600082821b905092915050565b6000600883026128727fffffffffffffffffffffffffffffffffffffffffffffffffffffffffffffffff82612835565b61287c8683612835565b95508019841693508086168417925050509392505050565b6000819050919050565b60006128b96128b46128af84611f46565b612894565b611f46565b9050919050565b6000819050919050565b6128d38361289e565b6128e76128df826128c0565b848454612842565b825550505050565b600090565b6128fc6128ef565b6129078184846128ca565b505050565b5b8181101561292b576129206000826128f4565b60018101905061290d565b5050565b601f8211156129705761294181612810565b61294a84612825565b81016020851015612959578190505b61296d61296585612825565b83018261290c565b50505b505050565b600082821c905092915050565b600061299360001984600802612975565b1980831691505092915050565b60006129ac8383612982565b9150826002028217905092915050565b6129c582611fa9565b67ffffffffffffffff8111156129de576129dd6121aa565b5b6129e88254612635565b6129f382828561292f565b600060209050601f831160018114612a265760008415612a14578287015190505b612a1e85826129a0565b865550612a86565b601f198416612a3486612810565b60005b82811015612a5c57848901518255600182019150602085019450602081019050612a37565b86831015612a795784890151612a75601f891682612982565b8355505b6001600288020188555050505b505050505050565b600081519050919050565b600082825260208201905092915050565b6000612ab582612a8e565b612abf8185612a99565b9350612acf818560208601611fc5565b612ad881611fef565b840191505092915050565b6000608082019050612af8600083018761208d565b612b05602083018661208d565b612b126040830185612123565b8181036060830152612b248184612aaa565b905095945050505050565b600081519050612b3e81611eb7565b92915050565b600060208284031215612b5a57612b59611e81565b5b6000612b6884828501612b2f565b91505092915050565b6000604082019050612b86600083018561208d565b612b936020830184612123565b9392505050565b7f4e487b7100000000000000000000000000000000000000000000000000000000600052601260045260246000fdfea2646970667358221220112d807680cd4315b3c2f3c02644e46e81842bc6def8848d224dcb1907a82cf064736f6c634300081c0033",
  "linkReferences": {},
  "deployedLinkReferences": {}
}